{
  "contractName": "Voting",
  "abi": [
    {
      "constant": true,
      "inputs": [
        {
          "name": "",
          "type": "bytes32"
        }
      ],
      "name": "votesReceived",
      "outputs": [
        {
          "name": "",
          "type": "uint8"
        }
      ],
      "payable": false,
      "stateMutability": "view",
      "type": "function"
    },
    {
      "constant": true,
      "inputs": [
        {
          "name": "",
          "type": "uint256"
        }
      ],
      "name": "candidateList",
      "outputs": [
        {
          "name": "",
          "type": "bytes32"
        }
      ],
      "payable": false,
      "stateMutability": "view",
      "type": "function"
    },
    {
      "inputs": [
        {
          "name": "candidateNames",
          "type": "bytes32[]"
        }
      ],
      "payable": false,
      "stateMutability": "nonpayable",
      "type": "constructor"
    },
    {
      "constant": false,
      "inputs": [
        {
          "name": "candidate",
          "type": "bytes32"
        }
      ],
      "name": "voteForCandidate",
      "outputs": [],
      "payable": false,
      "stateMutability": "nonpayable",
      "type": "function"
    },
    {
      "constant": true,
      "inputs": [
        {
          "name": "candidate",
          "type": "bytes32"
        }
      ],
      "name": "totalVotesFor",
      "outputs": [
        {
          "name": "",
          "type": "uint8"
        }
      ],
      "payable": false,
      "stateMutability": "view",
      "type": "function"
    },
    {
      "constant": true,
      "inputs": [],
      "name": "getCandidateList",
      "outputs": [
        {
          "name": "",
          "type": "bytes32[]"
        }
      ],
      "payable": false,
      "stateMutability": "view",
      "type": "function"
    },
    {
      "constant": true,
      "inputs": [
        {
          "name": "candidate",
          "type": "bytes32"
        }
      ],
      "name": "validCandidate",
      "outputs": [
        {
          "name": "",
          "type": "bool"
        }
      ],
      "payable": false,
      "stateMutability": "view",
      "type": "function"
    }
  ],
  "bytecode": "0x608060405234801561001057600080fd5b506040516104e53803806104e5833981018060405281019080805182019291905050508060019080519060200190610049929190610050565b50506100c8565b828054828255906000526020600020908101928215610092579160200282015b82811115610091578251829060001916905591602001919060010190610070565b5b50905061009f91906100a3565b5090565b6100c591905b808211156100c15760008160009055506001016100a9565b5090565b90565b61040e806100d76000396000f300608060405260043610610078576000357c0100000000000000000000000000000000000000000000000000000000900463ffffffff1680632f265cf71461007d578063392e6678146100c85780637021939f14610111578063b13c744b1461015c578063cc9ab267146101a5578063fdbc4006146101d6575b600080fd5b34801561008957600080fd5b506100ac6004803603810190808035600019169060200190929190505050610242565b604051808260ff1660ff16815260200191505060405180910390f35b3480156100d457600080fd5b506100f76004803603810190808035600019169060200190929190505050610287565b604051808215151515815260200191505060405180910390f35b34801561011d57600080fd5b5061014060048036038101908080356000191690602001909291905050506102e6565b604051808260ff1660ff16815260200191505060405180910390f35b34801561016857600080fd5b5061018760048036038101908080359060200190929190505050610306565b60405180826000191660001916815260200191505060405180910390f35b3480156101b157600080fd5b506101d46004803603810190808035600019169060200190929190505050610329565b005b3480156101e257600080fd5b506101eb610386565b6040518080602001828103825283818151815260200191508051906020019060200280838360005b8381101561022e578082015181840152602081019050610213565b505050509050019250505060405180910390f35b600061024d82610287565b151561025857600080fd5b600080836000191660001916815260200190815260200160002060009054906101000a900460ff169050919050565b600080600090505b6001805490508110156102db5782600019166001828154811015156102b057fe5b90600052602060002001546000191614156102ce57600191506102e0565b808060010191505061028f565b600091505b50919050565b60006020528060005260406000206000915054906101000a900460ff1681565b60018181548110151561031557fe5b906000526020600020016000915090505481565b61033281610287565b151561033d57600080fd5b6001600080836000191660001916815260200190815260200160002060008282829054906101000a900460ff160192506101000a81548160ff021916908360ff16021790555050565b606060018054806020026020016040519081016040528092919081815260200182805480156103d857602002820191906000526020600020905b815460001916815260200190600101908083116103c0575b50505050509050905600a165627a7a723058203c516052f452db55ab91898c478947e0e2e7ad2033b52588f05fbb5cd0ffca310029",
  "source": "pragma solidity ^0.4.22;\n\ncontract Voting {\n    // candidate name -> vote count\n    mapping (bytes32 => uint8) public votesReceived;\n\n    // candidates list\n    bytes32[] public candidateList;\n\n    constructor(bytes32[] candidateNames) public {\n        candidateList = candidateNames;\n    }\n\n    function voteForCandidate(bytes32 candidate) public {\n        require(validCandidate(candidate));\n        votesReceived[candidate] += 1;\n    }\n\n    function totalVotesFor(bytes32 candidate) view public returns (uint8) {\n        require(validCandidate(candidate));\n        return votesReceived[candidate];\n    }\n\n    function getCandidateList() view public returns (bytes32[]) {\n        return candidateList;\n    }\n\n    function validCandidate(bytes32 candidate) view public returns (bool) {\n        for (uint i = 0; i < candidateList.length; i ++) {\n            if (candidateList[i] == candidate) {\n                return true;\n            }\n        }\n        return false;\n    }\n}\n",
  "sourcePath": "/Users/tsuhovenko/Projects/ether-voting/contracts/Voting.sol",
  "compiler": {
    "name": "solc",
    "version": "0.4.24+commit.e67f0147.Emscripten.clang"
  },
  "schemaVersion": "2.0.0",
  "updatedAt": "2018-06-12T19:33:56.987Z"
}